:020000040800F2
:100000000000022045660008D1140008D31400083F
:10001000D5140008D7140008D91400080000000007
:1000200000000000000000000000000071620008F5
:10003000DB14000800000000A1620008156200083F
:1000400095660008956600089566000895660008A4
:100050009566000895660008956600089566000894
:1000600095660008DD140008E7140008956600088E
:100070009566000895660008956600089566000874
:10008000956600089566000895660008F11400085A
:1000900001150008956600081115000821150008D3
:1000A0009566000895660008956600089566000844
:1000B0009566000895660008956600089566000834
:1000C0009566000895660008956600089566000824
:1000D000956600082D1500089566000895660008CD
:1000E0009566000895660008956600089566000804
:1000F00095660008956600089566000895660008F4
:1001000095660008956600089566000895660008E3
:1001100095660008956600083D150008956600087C
:100120004D1500085D1500086D1500087D150008C7
:1001300095660008956600089566000895660008B3
:1001400095660008956600089566000895660008A3
:10015000956600088D1500089D150008AD1500086E
:10016000BD150008CD1500089566000895660008C5
:100170009566000895660008956600080000000076
:08018000956600089566000871
:1001900053B94AB9002908BF00281CBF4FF0FF31EE
:1001A0004FF0FF3000F00CB8ADF1080C6DE904CE53
:1001B00006F072FADDF804E0DDE9022304B07047CE
:1001C000704700BF000000000000000000000000B9
:1001D00001F0FF01102A2BDB10F0070F08D010F8F8
:1001E000013B013A8B422DD010F0070F42B3F6D1FC
:1001F000F0B441EA012141EA014122F007047FF015
:1002000000070023F0E80256083C85EA010586EA6B
:10021000010685FA47F5A3FA87F586FA47F6A5FAA7
:1002200087F68EB9EED1F0BC01F0FF0102F00702B3
:1002300032B110F8013B013A83EA010313B1F8D15E
:100240000020704701387047002D06BF354603383F
:10025000073815F0010F07D1013015F4807F02BF78
:10026000013015F4C03F0130F0BC0138704700BFC9
:10027000034613F8012B002AFBD1181A01387047E6
:1002800081F0004102E000BF83F0004330B54FEA47
:1002900041044FEA430594EA050F08BF90EA020FB4
:1002A0001FBF54EA000C55EA020C7FEA645C7FEA47
:1002B000655C00F0E2804FEA5454D4EB5555B8BF6A
:1002C0006D420CDD2C4480EA020281EA030382EADB
:1002D000000083EA010180EA020281EA0303362D6D
:1002E00088BF30BD11F0004F4FEA01314FF4801C40
:1002F0004CEA113102D0404261EB410113F0004F52
:100300004FEA03334CEA133302D0524263EB430308
:1003100094EA050F00F0A780A4F10104D5F1200EA6
:100320000DDB02FA0EFC22FA05F2801841F1000101
:1003300003FA0EF2801843FA05F359410EE0A5F1D5
:1003400020050EF1200E012A03FA0EFC28BF4CF006
:10035000020C43FA05F3C01851EBE37101F00045BC
:1003600007D54FF0000EDCF1000C7EEB00006EEBC9
:100370000101B1F5801F1BD3B1F5001F0CD3490853
:100380005FEA30004FEA3C0C04F101044FEA4452AA
:1003900012F5800F80F09A80BCF1004F08BF5FEA31
:1003A000500C50F1000041EB045141EA050130BD11
:1003B0005FEA4C0C404141EB0101013C28BFB1F523
:1003C000801FE9D291F0000F04BF01460020B1FA6E
:1003D00081F308BF2033A3F10B03B3F120020CDA41
:1003E0000C3208DD02F1140CC2F10C0201FA0CF01F
:1003F00021FA02F10CE002F11402D8BFC2F1200C84
:1004000001FA02F120FA0CFCDCBF41EA0C01904039
:10041000E41AA2BF01EB0451294330BD6FEA040482
:100420001F3C1CDA0C340EDC04F11404C4F120026D
:1004300020FA04F001FA02F340EA030021FA04F37F
:1004400045EA030130BDC4F10C04C4F1200220FAD6
:1004500002F001FA04F340EA0300294630BD21FA14
:1004600004F0294630BD94F0000F83F4801306BFDA
:1004700081F480110134013D4EE77FEA645C18BFCE
:100480007FEA655C29D094EA050F08BF90EA020F65
:1004900005D054EA000C04BF1946104630BD91EA5D
:1004A000030F1EBF0021002030BD5FEA545C05D160
:1004B0004000494128BF41F0004130BD14F580049F
:1004C0003CBF01F5801130BD01F0004545F0FE4113
:1004D00041F470014FF0000030BD7FEA645C1ABF48
:1004E000194610467FEA655C1CBF0B46024650EA7F
:1004F000013406BF52EA033591EA030F41F40021AB
:1005000030BD00BF90F0000F04BF0021704730B530
:100510004FF4806404F132044FF000054FF0000105
:1005200050E700BF90F0000F04BF0021704730B5C6
:100530004FF4806404F1320410F0004548BF40429B
:100540004FF000013EE700BF42004FEAE2014FEAF0
:1005500031014FEA02701FBF12F07F4393F07F4FCB
:1005600081F06051704732F07F4208BF704793F0CE
:100570007F4F04BF41F40021704730B54FF46074E1
:1005800001F0004521F000411CE700BF50EA0102E4
:1005900008BF704730B54FF000050AE050EA01028D
:1005A00008BF704730B511F0004502D5404261EBFD
:1005B00041014FF4806404F132045FEA915C3FF43E
:1005C000D8AE4FF003025FEADC0C18BF03325FEADB
:1005D000DC0C18BF033202EBDC02C2F1200300FA8C
:1005E00003FC20FA02F001FA03FE40EA0E0021FAB1
:1005F00002F11444BDE600BF70B54FF0FF0C4CF49F
:10060000E06C1CEA11541DBF1CEA135594EA0C0F50
:1006100095EA0C0F00F0DEF82C4481EA030621EA8B
:100620004C5123EA4C5350EA013518BF52EA0335C6
:1006300041F4801143F4801338D0A0FB02CE4FF078
:100640000005E1FB02E506F00042E0FB03E54FF0A8
:100650000006E1FB03569CF0000F18BF4EF0010EA0
:10066000A4F1FF04B6F5007F64F5407404D25FEA9C
:100670004E0E6D4146EB060642EAC62141EA55514F
:100680004FEAC52040EA5E504FEACE2EB4F1FD0C91
:1006900088BFBCF5E06F1ED8BEF1004F08BF5FEA0F
:1006A000500E50F1000041EB045170BD06F00046C1
:1006B00046EA010140EA020081EA0301B4EB5C046E
:1006C000C2BFD4EB0C0541EA045170BD41F4801166
:1006D0004FF0000E013C00F3AB8014F1360FDEBF8B
:1006E000002001F0004170BDC4F10004203C35DA67
:1006F0000C341BDC04F11404C4F1200500FA05F3EA
:1007000020FA04F001FA05F240EA020001F000428A
:1007100021F0004110EBD37021FA04F642EB060100
:100720005EEA430E08BF20EAD37070BDC4F10C042A
:10073000C4F1200500FA04F320FA05F001FA04F2EE
:1007400040EA020001F0004110EBD37041F10001DA
:100750005EEA430E08BF20EAD37070BDC4F12005E5
:1007600000FA05F24EEA020E20FA04F301FA05F24D
:1007700043EA020321FA04F001F0004121FA04F2F5
:1007800020EA020000EBD3705EEA430E08BF20EAC5
:10079000D37070BD94F0000F0FD101F000464000FF
:1007A00041EB010111F4801F08BF013CF7D041EA81
:1007B000060195F0000F18BF704703F00046520085
:1007C00043EB030313F4801F08BF013DF7D043EA56
:1007D0000603704794EA0C0F0CEA135518BF95EA0C
:1007E0000C0F0CD050EA410618BF52EA4306D1D193
:1007F00081EA030101F000414FF0000070BD50EAB2
:10080000410606BF1046194652EA430619D094EA3B
:100810000C0F02D150EA013613D195EA0C0F05D125
:1008200052EA03361CBF104619460AD181EA030179
:1008300001F0004141F0FE4141F470014FF0000031
:1008400070BD41F0FE4141F4780170BD70B54FF0CC
:10085000FF0C4CF4E06C1CEA11541DBF1CEA13554C
:1008600094EA0C0F95EA0C0F00F0A7F8A4EB05042E
:1008700081EA030E52EA03354FEA013100F0888025
:100880004FEA03334FF0805545EA131343EA1263EE
:100890004FEA022245EA111545EA10654FEA0026A3
:1008A0000EF000419D4208BF964244F1FD0404F55C
:1008B000407402D25B084FEA3202B61A65EB0305B8
:1008C0005B084FEA32024FF480104FF4002CB6EB75
:1008D000020E75EB030E22BFB61A754640EA0C00F5
:1008E0005B084FEA3202B6EB020E75EB030E22BF35
:1008F000B61A754640EA5C005B084FEA3202B6EB76
:10090000020E75EB030E22BFB61A754640EA9C0034
:100910005B084FEA3202B6EB020E75EB030E22BF04
:10092000B61A754640EADC0055EA060E18D04FEAC2
:10093000051545EA16754FEA06164FEAC30343EA62
:1009400052734FEAC2025FEA1C1CC0D111F4801F2F
:100950000BD141EA00014FF000004FF0004CB6E728
:1009600011F4801F04BF01430020B4F1FD0C88BFC7
:10097000BCF5E06F3FF6AFAEB5EB030C04BFB6EBD2
:10098000020C5FEA500C50F1000041EB045170BDC5
:100990000EF0004E4EEA113114EB5C04C2BFD4EBF2
:1009A0000C0541EA045170BD41F480114FF0000E76
:1009B000013C90E645EA060E8DE60CEA135594EAF2
:1009C0000C0F08BF95EA0C0F3FF43BAF94EA0C0FF5
:1009D0000AD150EA01347FF434AF95EA0C0F7FF46A
:1009E00025AF104619462CE795EA0C0F06D152EABE
:1009F00003353FF4FDAE1046194622E750EA4106A2
:100A000018BF52EA43067FF4C5AE50EA41047FF4B2
:100A10000DAF52EA43057FF4EBAE12E74FF0FF3C17
:100A200006E000BF4FF0010C02E000BF4FF0010CE8
:100A30004DF804CD4FEA410C7FEA6C5C4FEA430C61
:100A400018BF7FEA6C5C1BD001B050EA410C0CBFB0
:100A500052EA430C91EA030F02BF90EA020F002012
:100A6000704710F1000F91EA030F58BF994208BF79
:100A700090422CBFD8176FEAE37040F00100704736
:100A80004FEA410C7FEA6C5C02D150EA013C07D18D
:100A90004FEA430C7FEA6C5CD6D152EA033CD3D0D8
:100AA0005DF8040B704700BF8446104662468C46D2
:100AB0001946634600E000BF01B5FFF7B7FF002805
:100AC00048BF10F1000F01BD4DF808EDFFF7F4FF2E
:100AD0000CBF012000205DF808FB00BF4DF808EDB9
:100AE000FFF7EAFF34BF012000205DF808FB00BFDC
:100AF0004DF808EDFFF7E0FF94BF012000205DF8FE
:100B000008FB00BF4DF808EDFFF7CEFF94BF0120B2
:100B100000205DF808FB00BF4DF808EDFFF7C4FFAB
:100B200034BF012000205DF808FB00BF4FEA410CF4
:100B30007FEA6C5C02D150EA013C0AD14FEA430CD7
:100B40007FEA6C5C02D152EA033C02D14FF0000014
:100B500070474FF0010070474FEA410212F5001252
:100B600015D211D56FF47873B3EB625212D94FEAF4
:100B7000C12343F0004343EA505311F0004F23FADE
:100B800002F018BF404270474FF00000704750EA33
:100B9000013005D111F0004008BF6FF000407047F0
:100BA0004FF00000704700BF0348044B834202D05F
:100BB000034B03B118477047D4010020D401002033
:100BC000000000000548064B1B1AD90F01EBA301DA
:100BD000491002D0034B03B118477047D4010020DD
:100BE000D40100200000000010B5064C237843B962
:100BF000FFF7DAFF044B13B10448AFF30080012381
:100C0000237010BDD401002000000000F092000805
:100C100008B5054B1BB105490548AFF30080BDE899
:100C20000840FFF7CFBF00BF00000000D801002040
:100C3000F092000808B50E480E4B0360062343608F
:100C400000238360C3604FF4102202614FF400124E
:100C500042610376012242768376C2760377437738
:100C600000F034FF00B908BD00F08EFAFBE700BFCA
:100C7000F00100200064004000B589B00023039318
:100C800004930593069307930268204B9A4201D080
:100C900009B000BD0021019103F5EA331A6C42F05E
:100CA00000721A641A6C02F000720192019A0291A9
:100CB0001A6B42F008021A631B6B03F008030293DD
:100CC000029B0323039302220492069309230793B2
:100CD00003A90F4801F07AFD00220521132001F03D
:100CE00023FA132001F044FA00220521142001F018
:100CF0001BFA142001F03CFA00220521162001F015
:100D000013FA162001F034FAC2E700BF0064004075
:100D1000000C024008B50548054B036001F038FAA5
:100D200000B908BD00F030FAFBE700BF5402002014
:100D3000003002400268094B9A4200D0704782B0EE
:100D400000230193064B1A6B42F480521A631B6B0B
:100D500003F480530193019B02B0704700300240BE
:100D60000038024010B582B0002401941D4B1A6B6C
:100D700042F480021A631B6B03F480030193019B0E
:100D800022460521382001F0CFF9382001F0F0F992
:100D900022460521392001F0C7F9392001F0E8F990
:100DA000224605213A2001F0BFF93A2001F0E0F98E
:100DB000224605213B2001F0B7F93B2001F0D8F98C
:100DC00022460521452001F0AFF9452001F0D0F978
:100DD00022460521462001F0A7F9462001F0C8F976
:100DE00002B010BD00380240084B1B680848A0FB49
:100DF0000320800C074A934204D9074B5B68B3FB7E
:100E0000F0F07047044B5868704700BF00000020A6
:100E100083DE1B433F420F00001000E02DE9F04F3E
:100E20008FB009AD002409946C60AC60EC602C615B
:100E30000094864B1A6B42F010021A631A6B02F090
:100E400010020092009A01941A6B42F002021A6397
:100E50001A6B02F002020192019A02941A6B42F09C
:100E600040021A631A6B02F040020292029A039443
:100E70001A6B42F008021A631A6B02F0080203921E
:100E8000039A04941A6B42F004021A631A6B02F07C
:100E900004020492049A05941A6B42F001021A6348
:100EA0001A6B02F001020592059A06941A6B42F43D
:100EB00080721A631A6B02F480720692069A079483
:100EC0001A6B42F080021A631A6B02F080020792DA
:100ED000079A08941A6B42F020021A631B6B03F006
:100EE00020030893089B5A4F01224021384601F005
:100EF000E5FDDFF8749101221021484601F0DEFD86
:100F0000DFF8688101221146404601F0D7FD4FF617
:100F1000FF7BCDF824B003260A960B9429464D4852
:100F200001F054FC4FF6667309930A960B94294618
:100F3000404601F04BFC4BF6B75309930A960B94CD
:100F40002946384601F042FC4BF6FC7309930A9699
:100F50000B942946404801F039FC4FF6CF530993D2
:100F60000A960B94DFF808A12946504601F02EFCA2
:100F700049F66F4309930A960B942946484601F0B7
:100F800025FC40F6FF7309930A960B9429463348D3
:100F900001F01CFC4FF6FC7309930A960B9429464A
:100FA0002F4801F013FCCDF824B00A960B94294683
:100FB0002C4801F00BFC4023099301260A960B9460
:100FC0000C942946384601F001FC082309934FF49C
:100FD00044130A930B962946384601F0F7FB102379
:100FE00009930A960B940C942946484601F0EEFBAF
:100FF000302309934FF404130A930B962946504665
:1010000001F0E4FB09960A960B940C94294640469D
:1010100001F0DCFB22460521092001F085F80920BA
:1010200001F0A6F8224605210A2001F07DF80A20E9
:1010300001F09EF822460521172001F075F81720CF
:1010400001F096F80FB0BDE8F08F00BF0038024005
:101050000018024000100240000C02400020024034
:10106000001C024000140240000002400004024044
:101070000008024008B50B480B4B03600B4B436064
:1010800000238360C3604FF4804202614361836147
:10109000C361036202F000FC00B908BD00F074F8FF
:1010A000FBE700BF5C020020005C0040801A0600E5
:1010B000F0B589B000230393049305930693079337
:1010C0000268274B9A4201D009B0F0BD0025009577
:1010D000244C236B43F004032363236B03F00403CA
:1010E0000093009B0195236B43F001032363236B63
:1010F00003F001030193019B4FF400730393122645
:101100000496032706970423079303A9164801F0C2
:101110005DFB4FF4807303930496059506970423B3
:10112000079303A9114801F051FB0295236C43F486
:1011300000032364236C03F400030293029B2A46FA
:101140000521482000F0F0FF482001F011F82A4660
:101150000521492000F0E8FF492001F009F8B3E734
:10116000005C0040003802400008024000000240DD
:1011700008B50268034B9A4200D008BD00F072FC2B
:10118000FBE700BF0010004072B6FEE710B594B058
:1011900008AC30220021204606F073F900230393A7
:1011A00004930593069307930193204A116C41F031
:1011B00080511164126C02F080520192019A0293E4
:1011C0001B4B1A6842F480421A601B6803F4804388
:1011D0000293029B012308934FF480330993022367
:1011E0000E934FF480020F9206221092A8221192C1
:1011F000129304231393204602F018FE88B90F239C
:1012000003930223049305904FF4A05306934FF4E5
:1012100080530793052103A803F0DCF818B914B034
:1012200010BDFFF7B1FFFFF7AFFF00BF003802406E
:101230000070004008B500F0FBFBFFF7A7FFFFF7C9
:10124000EDFDFFF78FFD00F0BBFA00F0D3FAFFF7DA
:1012500061FDFFF7EFFC00F009F8FFF70BFF00F06E
:101260006FFA322005F0C6F9FEE7704708B50F485F
:101270000F4B03604FF48273436000238360C360AD
:1012800002220261012242614FF40072826138221F
:10129000C2610362436283620A23C36203F0F4F90A
:1012A00000B908BDFFF770FFFBE700BFA0030020F7
:1012B00000300140F0B589B00023039304930593F7
:1012C0000693079302683B4B9A4201D009B0F0BDE8
:1012D00004460025009503F584335A6C42F480528D
:1012E0005A645A6C02F480520092009A01951A6B6B
:1012F00042F002021A631A6B02F002020192019A92
:1013000002951A6B42F001021A631B6B03F0010392
:101310000293029B18230393022604960327069741
:101320000523079303A9244801F050FA802303936F
:101330000496059506970523079303A91F4801F016
:1013400045FA1F481F4B03604FF0C0634360856040
:10135000C5604FF48063036145618561C5614FF4E9
:1013600040330362456200F099FFE8B9144BE3642F
:101370009C631548154B03604FF0C06343604023E6
:1013800083600023C3604FF4806202614361836124
:10139000C3614FF400320262436200F07FFF30B954
:1013A000094BA3649C6391E7FFF7EEFEDEE7FFF7CE
:1013B000EBFEF5E70030014000040240000002406F
:1013C0004003002010640240E00200205864024004
:1013D00000B583B0002200920D4B596C41F480415E
:1013E0005964596C01F48041009100990192196C83
:1013F00041F0805119641B6C03F080530193019BF1
:101400000F216FF0010000F08FFE03B000BD00BFA0
:101410000038024008B500F025FB08BD30B589B0A2
:10142000044600230193244B1A6C42F010021A6404
:101430001B6C03F010030193019B02A903A803F0A6
:10144000FDF8069BF3B903F0D9F803461B4AA2FB4B
:1014500003239B0C013B1A481A4A026040F2E73210
:10146000C2604360002303618360836104F00EF96E
:10147000054658B1144A0E21114803F077FC28465E
:1014800009B030BD03F0BAF84300DFE70C4803F0C1
:101490002FFB05460028EDD1362000F069FE0F2C09
:1014A00002D901231D46E5E700222146362000F03F
:1014B0003BFE064B1C60DDE70038024083DE1B4329
:1014C000200400200010004015140008080000202F
:1014D000FEE7FEE7FEE7FEE7FEE7704708B50820F7
:1014E00001F00AFB08BD08B5102001F005FB08BD9E
:1014F00008B5024800F09CFC08BD00BFF0010020C8
:1015000008B5024800F094FC08BD00BFF0010020BF
:1015100008B5024800F08CFC08BD00BFF0010020B7
:1015200008B5202001F0E8FA08BD000008B502481F
:1015300004F05CFC08BD00BF8407002008B5024829
:1015400003F058FB08BD00BF2004002008B5024886
:1015500001F04AF808BD00BF4003002008B502486A
:1015600001F042F808BD00BF8C05002008B5024814
:1015700001F03AF808BD00BFAC06002008B50248EB
:1015800001F032F808BD00BFE002002008B50248B3
:1015900001F02AF808BD00BFEC05002008B502489C
:1015A00001F022F808BD00BF4C06002008B5024833
:1015B00004F01CFC08BD00BF0C07002008B5024861
:1015C00002F0FAFA08BD00BF5C02002008B502482C
:1015D00002F0CAFB08BD00BF5C020020012070477A
:1015E00008B505F0A1FF162303604FF0FF3008BDDA
:1015F00008B54FF0FF31FFF7F3FFFEE770B50E4679
:101600001546002406E0AFF30080314601F8010BD7
:1016100001340E46AC42F6DB284670BD70B50C4670
:101620001646002504E014F8010BAFF300800135E5
:10163000B542F8DB304670BD4FF0FF3070474FF4D5
:1016400000534B6000207047012070470020704716
:1016500008B503460D4A0E490E48006840B10D48D2
:1016600000680344521A934208D80A4A136008BD1E
:101670000848DFF824C0C0F800C0F0E705F054FFC8
:101680000C2303604FF0FF30F1E700BF00000220A1
:1016900000040000D4040020E00D0020034AD2F82A
:1016A000883043F47003C2F88830704700ED00E0E2
:1016B0000268094B9A4200D0704782B00023019320
:1016C000064B1A6C42F004021A641B6C03F004030C
:1016D0000193019B02B070470008004000380240AF
:1016E00000B587B0002301930293039304930593FD
:1016F0000268104B9A4201D007B000BD002300934E
:101700000D4B1A6B42F008021A631B6B03F00803BF
:101710000093009B4FF48043019302230293012224
:10172000039203220492059301A9044801F04EF8A4
:10173000E2E700BF0008004000380240000C024011
:1017400000B58BB000230893099301930293039390
:1017500004930593069307931748184A0260A7223B
:10176000426083606422C2600361836104F04CF8CC
:10177000C0B900230893099308A90F4804F002F99F
:1017800098B96023019300230293039305930822E1
:1017900001A9094803F0D0FC50B90748FFF7A0FFA2
:1017A0000BB000BDFFF7F0FCE3E7FFF7EDFCE8E767
:1017B000FFF7EAFCF1E700BFD80400200008004072
:1017C00008B50A480A4B03604FF4612343600023C5
:1017D0008360C36003610C2242618361C36104F0D2
:1017E00079FC00B908BDFFF7CFFCFBE784070020B8
:1017F0000010014008B50A480A4B03604FF4E1337A
:10180000436000238360C36003610C2242618361F3
:10181000C36104F05FFC00B908BDFFF7B5FCFBE74E
:101820000C07002000140140F0B58BB004460023E3
:101830000593069307930893099303686E4A9342AE
:1018400004D06E4A934276D00BB0F0BD00250095CF
:101850006B4B5A6C42F010025A645A6C02F0100240
:101860000092009A01951A6B42F002021A631A6BF9
:1018700002F002020192019A02951A6B42F00102F3
:101880001A631B6B03F001030293029B80230593F1
:1018900002260696032708970723099305A95948A6
:1018A00000F094FF4FF40073059306960795089790
:1018B0000723099305A9544800F088FF5348544B67
:1018C00003604FF0006343608560C5604FF4806340
:1018D000036145618561C5610562456200F0DEFC1A
:1018E00018BB4A4BE3639C634A484B4B03604FF081
:1018F00000634360402383600023C3604FF4806231
:10190000026143618361C3610362436200F0C6FC0C
:1019100070B9404BA3639C6300220521252000F091
:1019200003FC252000F024FC8EE7FFF72DFCD8E710
:10193000FFF72AFCEDE700250395314B5A6C42F086
:1019400020025A645A6C02F020020392039A049512
:101950001A6B42F040021A631B6B03F040030493BE
:10196000049B4FF4844305930223069303230893B7
:101970000823099305A9294800F028FF2848294B86
:1019800003604FF02063436040238360C5604FF4E1
:101990008063036145618561C5610562456200F050
:1019A0007DFC10BB1E4BA3639C631F481F4B036051
:1019B0004FF02063436000238360C3604FF4806274
:1019C000026143618361C3610362436200F066FCAC
:1019D00070B9154BE3639C6300220521472000F09A
:1019E000A3FB472000F0C4FB2EE7FFF7CDFBD9E7B0
:1019F000FFF7CAFBEDE700BF0010014000140140F3
:101A0000003802400004024000000240AC06002002
:101A1000406402404C060020B864024000180240B6
:101A2000EC050020A06402408C05002028640240E0
:101A300008B50B4B1A6842F400721A601A6842F437
:101A400080621A601A6842F480721A60032000F003
:101A50004DFB0F20FFF7E2FCFFF7BAFC002008BDAA
:101A6000003C0240034A1168034B1B780B4413608F
:101A7000704700BFFC07002004000020014B1868DD
:101A8000704700BFFC07002038B50446FFF7F6FF9B
:101A90000546B4F1FF3F02D0044B1B781C44FFF70E
:101AA000EDFF401BA042FAD338BD00BF0400002068
:101AB000704770477047704770477047704770476E
:101AC000704770477047704770470000002800F06B
:101AD000AD8138B504460368924A934208D002F5B6
:101AE0008062934204D04FF48F718F48FFF7BDFBA3
:101AF000237E012B00F2B680637E012B00F2B880BA
:101B0000A37E012B00F2BA80E37E012B00F2BC80A1
:101B1000237F012B00F2BE80637F012B00F2C08087
:101B2000A3684BB1B3F1804F06D0B3F1004F03D09F
:101B3000B3F1404F40F0BA80E3684BB1B3F1807F1E
:101B400006D0B3F1007F03D0B3F1407F40F0B48002
:101B500023696BB3B3F5803F2AD0B3F5003F27D09C
:101B6000B3F5403F24D0B3F5802F21D0B3F5A02F9B
:101B70001ED0B3F5C02F1BD0B3F5E02F18D0B3F5AE
:101B8000002F15D0B3F5102F12D0B3F5202F0FD0A2
:101B9000B3F5302F0CD0B3F5402F09D0B3F5502F4B
:101BA00006D0B3F5602F03D0B3F5702F40F08A80D4
:101BB0006369A3B1B3F5801F11D0B3F5001F0ED038
:101BC000B3F5401F0BD0B3F5800F08D0B3F5A00FCD
:101BD00005D0B3F5C00F02D0B3F5E00F78D163683C
:101BE000013BB3F5806F79D294F82030FBB94F4BAD
:101BF00023644F4B63644F4BA3644F4BE3644F4BE1
:101C0000A3624F4BE3624F4B23634F4B63634F4BD6
:101C1000A3634F4BE3634F4B23654F4B63654F4BC0
:101C2000A365E36D002B5FD0E36D204698472268E3
:101C3000136843F001031360FFF720FF0546236894
:101C40005A6812F0010F52D1FFF718FF401B0A2803
:101C5000F5D9636A43F400336362052384F82030C6
:101C6000012038BD40F21F112F48FFF7FEFA43E76D
:101C70004FF490712C48FFF7F8FA41E740F2211138
:101C80002948FFF7F2FA3FE74FF491712648FFF732
:101C9000ECFA3DE740F223112348FFF7E6FA3BE771
:101CA0004FF492712048FFF7E0FA39E740F225112E
:101CB0001D48FFF7DAFA3FE74FF493711A48FFF730
:101CC000D4FA45E740F227111748FFF7CEFA6FE73D
:101CD0004FF494711448FFF7C8FA80E740F22911D5
:101CE0001148FFF7C2FA7FE71D4BE3659CE71A68CE
:101CF00022F002021A60FFF7C1FE054623685A6807
:101D000012F0020F2ED0FFF7B9FE401B0A28F5D9BA
:101D1000636A43F400336362052384F820300120B2
:101D20009FE700BF0064004020930008BD1A000830
:101D3000BF1A0008C11A0008C31A0008B11A000827
:101D4000B31A0008B51A0008B71A0008B91A000833
:101D5000BB1A0008C51A0008C71A0008C91A0008EB
:101D6000790C0008227E012A3DD01A6822F08002F8
:101D70001A60637E012B3BD02268136823F0400376
:101D80001360A37E012B39D02268136823F020034F
:101D90001360E37E012B37D02268136843F01003F1
:101DA0001360237F012B35D02268136823F00803CA
:101DB0001360637F012B33D02268136823F0040380
:101DC0001360A368E26813432269134362691343F3
:101DD0006268013A21681343CB61002060620123ED
:101DE00084F820303DE71A6842F080021A60C0E7AC
:101DF0002268136843F040031360C2E72268136847
:101E000043F020031360C4E72268136823F0100333
:101E10001360C6E72268136843F008031360C8E73D
:101E20002268136843F004031360CAE70120704777
:101E30002DE9F84F044603685D69D3F804809F6874
:101E4000DA6891461A6992469A69934615F0010636
:101E500027D017F0010608D001229A6017F0020F70
:101E600000F0BB80836A9847002617F4807F0AD071
:101E700023684FF480729A6017F4007F00F0BC80F2
:101E8000E36A2046984717F4803F0AD023684FF44E
:101E900080329A6017F4003F00F0BE80236B20462A
:101EA000984715F0080F07D019F0100F04D046F42A
:101EB000007623681022DA6015F0040F08D019F0BC
:101EC000080F05D023680822DA60636C2046984723
:101ED00015F0020F07D02368DB6813F0030F02D060
:101EE000236C2046984715F0400F07D01AF0100FCA
:101EF00004D046F48066236810221A6115F0200F82
:101F000008D01AF0080F05D0236808221A61E36C84
:101F10002046984715F0100F07D023681B6913F06F
:101F2000030F02D0A36C2046984715F4003F08D059
:101F300018F0100F05D0236810225A60236D204638
:101F4000984715F4803F08D018F0080F05D0236893
:101F500008225A60636D2046984715F4004F33D02D
:101F600018F0040F2DD015F4807F04D01BF0010F62
:101F700001D046F0010615F4007F04D01BF0020FDB
:101F800001D046F0020615F4806F04D01BF0040F58
:101F900001D046F0040615F4006F12D01BF0700358
:101FA0000FD0402B55D047D8202B4CD0302B4DD0C4
:101FB000102B01D146F008062268936923F07003C4
:101FC0009361236804225A602EB1636A33436362CB
:101FD000A36D20469847BDE8F88F17F0040F05D190
:101FE00017F0080605D1436B98473EE74FF40066AB
:101FF0003BE74FF4805638E717F4806F02D046F481
:10200000005640E717F4006F02D046F480463AE7E6
:10201000A36B2046984736E717F4802F02D046F48A
:1020200000463EE717F4002F02D046F4803638E72A
:10203000E36B2046984734E7502B0DD0602BBBD183
:1020400046F48076B8E746F01006B5E746F020067D
:10205000B2E746F04006AFE746F08006ACE7000086
:10206000002807DB00F01F02400901239340024AC9
:1020700042F82030704700BF00E100E0002808DB94
:102080000901C9B200F1604000F5614080F8001319
:10209000704700F00F000901C9B2014B1954704795
:1020A00014ED00E000B500F00700A0F1030CBCF156
:1020B000040F07D8C0F1070E0430062806D84FF0E9
:1020C000000C03E04FF0040E4FF0000C4FF0FF3314
:1020D00003FA0EF021EA000101FA0CF103FA0CF305
:1020E00022EA030241EA020000BD000010B50446E6
:1020F000C31E042B0FD80A4AD36823F4E0631B04E1
:102100001B0C240204F4E064234343F0BF6343F454
:102110000033D36010BD90210248FFF7A6F8EAE72C
:1021200000ED00E05893000870B506460C461546D1
:102130000F2A0ED80F2C11D80B4BD8682A462146EF
:10214000C0F30220FFF7AEFF01463046FFF796FFCF
:1021500070BDA8210548FFF788F8EBE7A9210348DF
:10216000FFF783F8E8E700BF00ED00E058930008B0
:1021700010B5031E1C4603DB2046FFF771FF10BDA0
:10218000BC210248FFF771F8F6E700BF589300083A
:10219000A0B110B504460268094B9A4203D06821E9
:1021A0000848FFF762F863791BB1012363710020CF
:1021B00010BD23712046FEF7BDFDF6E701207047F4
:1021C00000300240949300080368D9B210390A4ADB
:1021D000A2FB01C21209DFF824C01CF80220C2656C
:1021E0005F2905D96FF3090304338365806D704758
:1021F0006FF309038365F9E7ABAAAAAA90950008D3
:10220000836A826992B9012B0AD0022B02D00BB1EA
:1022100000207047C36A13F0807F2CD100207047E4
:10222000C36AB3F1C07F28D000207047B2F5005FC9
:1022300009D0022B2BD9032B2BD1C36A13F0807F3B
:1022400029D100207047022B19D00AD8CBB1012B1D
:1022500005D1C36A13F0807F15D10020704700209C
:102260007047032B05D1C36AB3F1C07F0DD00020A6
:1022700070470020704701207047012070470120FF
:1022800070470120704701207047012070470120EE
:1022900070470020704701207047000070B5044669
:1022A000FFF7ECFB002C00F03E81054623687B4ADB
:1022B000934231D0183293422ED0183293422BD011
:1022C0001832934228D01832934225D018329342C4
:1022D00022D0183293421FD0183293421CD002F5FC
:1022E0005672934218D01832934215D01832934246
:1022F00012D0183293420FD0183293420CD01832B9
:10230000934209D01832934206D01832934203D038
:10231000B7216348FEF7A9FF6368A3B1B3F1007F5B
:1023200011D0B3F1806F0ED0B3F1C06F0BD0B3F109
:10233000006F08D0B3F1206F05D0B3F1406F02D029
:10234000B3F1606F6DD1A3681BB1402B01D0802B1E
:102350006CD1E368B3F5007F01D0002B6BD123690A
:10236000B3F5806F01D0002B6AD163692BB1B3F54F
:10237000006F02D0B3F5805F67D1A3692BB1B3F5CD
:10238000005F02D0B3F5804F64D1E36923B1B3F5A8
:10239000807F01D0202B62D1236A43B1B3F5803F07
:1023A00005D0B3F5003F02D0B3F5403F5CD1636A7E
:1023B0000BB1042B5DD1636AC3B1A36A032B5DD853
:1023C000E36A43B1B3F5000F05D0B3F1807F02D0CB
:1023D000B3F1C07F57D1236B43B1B3F5001F05D0D4
:1023E000B3F5800F02D0B3F5C00F51D1022384F8AA
:1023F0003530002384F834302268136823F0010359
:10240000136023681A6812F0010F4BD0FFF736FBF8
:10241000401B0528F5D920236365032084F8350087
:1024200070BDB8211E48FEF720FF8CE7B9211C487B
:10243000FEF71BFF8DE7BA211948FEF716FF8EE75E
:10244000BB211748FEF711FF8FE7BC211448FEF7A8
:102450000CFF92E7BD211248FEF707FF95E7BE216A
:102460000F48FEF702FF97E7BF210D48FEF7FDFE7C
:102470009DE7C0210A48FEF7F8FE9CE7C521084801
:10248000FEF7F3FE9CE7C6210548FEF7EEFEA2E745
:10249000C7210348FEF7E9FEA8E700BF106002402D
:1024A000CC9300081A68214911406268A068024371
:1024B000E06802432069024360690243A069024365
:1024C000E0690243206A02430A43616A04291FD07B
:1024D0001A6023681E465D6925F00705636A1D437F
:1024E000042B07D1A36A1D43E36A1BB12046FFF703
:1024F00087FE90B975612046FFF766FEE26D3F23C7
:102500009340836000206065012384F8353087E7BD
:10251000E16A206B01430A43DAE740236365012047
:1025200084F835007CE701207AE700BF3F8010F097
:1025300070B50446836D1E46FFF7A0FA94F8353057
:10254000022B06D080236365002384F834300120F9
:1025500070BD05462268136823F0160313602268D5
:10256000536923F080035361236CE3B1226813683D
:1025700023F0080313602268136823F0010313603B
:1025800023681B6813F0010F11D0FFF777FA431B84
:10259000052BF5D920236365032084F8350000233B
:1025A00084F83430D4E7A36C002BDFD1E3E7E26D8D
:1025B0003F239340B360012384F83530002084F832
:1025C0003400C5E790F83530022B03D080234365F3
:1025D00001207047052380F835300268136823F026
:1025E0000103136000207047F0B583B00446002358
:1025F0000193724B1D68724BA3FB0535AD0A876DC5
:102600003E68C26D08239340334210D003681A68B5
:1026100012F0040F0BD01A6822F004021A60C26D87
:1026200008239340BB60436D43F001034365E26DB3
:1026300001239340334209D02268526912F0800F7F
:1026400004D0BB60636D43F002036365E26D042355
:102650009340334209D02268126812F0020F04D06E
:10266000BB60636D43F004036365E26D1023934028
:10267000334224D02268126812F0080F1FD0BB60CA
:1026800023681A6812F4802F0DD01B6813F4002FF2
:1026900004D1236C9BB12046984710E0A36C73B122
:1026A000204698470BE01A6812F4807F03D11A681D
:1026B00022F008021A60236C0BB120469847E26DA5
:1026C00020239340334254D02268126812F0100F36
:1026D0004FD0BB6094F83530052B0ED023681A68B4
:1026E00012F4802F33D01B6813F4002F2AD1636CAF
:1026F000002B3ED0204698473BE02268136823F029
:10270000160313602268536923F080035361236C1E
:10271000A3B12268136823F008031360E26D3F231E
:102720009340BB60012384F83530002384F83430B3
:10273000236D002B3FD0204698473CE0A36C002B34
:10274000E7D1EBE7E36BA3B12046984711E01A68A5
:1027500012F4807F09D11A6822F010021A60012356
:1027600084F83530002384F83430E36B0BB1204615
:102770009847636DFBB1636D13F0010F17D005230C
:1027800084F835302268136823F001031360019B3D
:1027900001330193AB4204D823681B6813F0010F87
:1027A000F5D1012384F83530002384F83430E36C0C
:1027B0000BB12046984703B0F0BD00BF00000020D9
:1027C000B5814E1B90F83500704700002DE9F041AF
:1027D00082B007460E46564B984223D003F58063DD
:1027E00098421FD003F5806398421BD003F58063A5
:1027F000984217D003F58063984213D003F58063A5
:1028000098420FD003F5806398420BD003F58063A4
:10281000984207D003F58063984203D0AC21454825
:10282000FEF723FD33689AB212B1B3F5803F03D3AC
:10283000AD214048FEF719FD7368012B19D9112B02
:1028400017D0022B15D0122B13D0B3F5881F10D040
:10285000B3F5041F0DD0B3F5441F0AD0B3F5901F94
:1028600007D0B3F5081F04D0B3F5481F01D0032BE0
:1028700001D1002496E0AE212E48FEF7F6FCF8E7E1
:10288000F368032B13D8BA68610003238B4022EA54
:102890000302F3688B401343BB607A6822EA0502A7
:1028A0007368C3F30013A34013437B608BE0C02124
:1028B0002048FEF7DAFCE6E7D1211E48FEF7D5FCFA
:1028C0008AE03369DBB1092B19D0012B17D0022B19
:1028D00015D0032B13D0042B11D0052B0FD0062BB2
:1028E0000DD0072B0BD0082B09D00A2B07D00B2BB0
:1028F00005D00C2B03D00D2B01D00F2B10D1E208EB
:10290000083257F8220004F0070189000F238B409A
:1029100020EA030033698B40034347F822306BE021
:10292000DE210448FEF7A1FCE9E7072305E000BF2C
:10293000000002400494000800238B40034302324D
:102940005A4941F822305A4B9A686FEA080322EA42
:102950000801706810F4801F01D048EA0201544A4F
:102960009160D26803EA0201706810F4001F01D080
:1029700048EA02014E4AD160526803EA02017068D7
:1029800010F4003F01D048EA0201494A5160126840
:102990001340716811F4803F01D048EA0203444AB1
:1029A000136001340F2C7ED80125A540336803EA5B
:1029B000050835EA0303F4D1736803F00303013B10
:1029C000012B7FF65DAF736803F00303032B0DD07B
:1029D000B368022B3FF670AFFA68610003238B40A7
:1029E00022EA0302B3688B401343FB60736803F071
:1029F0000303022B3FF465AF3A68610003238B4069
:102A000022EA0302736803F003038B4013433B6025
:102A1000736813F4403FC4D000230193254B5A6CD4
:102A200042F480425A645B6C03F480430193019B3F
:102A3000A208911C1D4B53F8210004F003018900EA
:102A40000F238B4020EA03001B4B9F423FF474AFDF
:102A500003F580639F421AD003F580639F4218D02C
:102A600003F580639F4216D003F580639F4214D024
:102A700003F580639F4212D003F580639F4210D01C
:102A800003F580639F423FF450AF082355E70123CD
:102A900053E7022351E703234FE704234DE70523C0
:102AA0004BE7062349E702B0BDE8F081003801405A
:102AB000003C0140003802400000024070B505466D
:102AC00014460E4621B1012C08D86CB1AE6170BD20
:102AD00040F29D110648FEF7C8FBF4E74FF4CF71B2
:102AE0000348FEF7C2FBF0E73304AB61EFE700BF3A
:102AF000049400087047000008B5054B5B69034269
:102B000000D108BD024B5861FFF7F4FFF9E700BFA1
:102B1000003C014003685A6912F0800F01D0002286
:102B20001A61704770477047704770477047704729
:102B3000704770477047704708B5C26A90F83D30DB
:102B4000212B00D008BD438D9BB263B1426A03685C
:102B500012781A61436A01334362438D9BB2013B91
:102B60009BB24385EEE7082A14D0202A12D012F532
:102B7000803F0FD00268536823F4E0635360112351
:102B80000363002380F83E30202380F83D30436DFE
:102B90009847D7E70268536823F4E06353600268FC
:102BA000136843F40073136000230363202380F849
:102BB0003D3090F83E30402B05D0002380F83E3069
:102BC000436D9847BEE7002380F83E30836E9847F8
:102BD000B8E708B590F83D30026D9AB9C36C012B87
:102BE00008D0836C0268C3F307231361036D0133BC
:102BF000036508BD836C0268DBB21361036D0233A9
:102C00000365F6E7DBB2026D012A23D0026D022ACA
:102C10003ED1222B26D0428D92B20AB1212B2AD04E
:102C2000428D92B2002AE4D1212BE2D1026853688E
:102C300023F4E06353600268136843F40073136085
:102C400000230363202280F83D2080F83E30836E0D
:102C50009847CEE7836C0268DBB21361036D0133E2
:102C60000365C6E70268136843F480731360036D5D
:102C700001330365BDE7426A036812781A61436A4B
:102C800001334362438D9BB2013B9BB24385B0E766
:102C9000FFF740FFADE708B590F83D30DBB290F8A4
:102CA0003E20D2B2D0F82CC0018D00293BD1212B7F
:102CB00002D0402A42D008BDBCF1080F14D0BCF1AC
:102CC000200F11D01CF5803F0ED00268536823F40A
:102CD000E06353601123036380F83E10202380F8E3
:102CE0003D30436D9847E6E70268536823F4E0639C
:102CF00053600268136843F4007313600023036396
:102D0000202380F83D3090F83E30402B05D0002342
:102D100080F83E30436D9847CDE7002380F83E3081
:102D2000836E9847C7E7212BC3D1438D9BB243B92C
:102D30000268536823F480635360BCE7222BBAD146
:102D4000F3E790F83E30402B0CD0426A03681278CB
:102D50001A61436A01334362438D9BB2013B9BB2CC
:102D60004385A8E7FFF735FFA5E708B5C26A438D9D
:102D70009BB2042B14D0438D9BB2032B22D0438DE6
:102D80009BB2022B39D003681A69436A1A70436AEE
:102D900001334362438D9BB2013B9BB2438510E0FC
:102DA0000268536823F48063536003681A69436AB6
:102DB0001A70436A01334362438D9BB2013B9BB25D
:102DC000438508BD01684B6823F480634B60042A87
:102DD00006D0022A04D00268136823F480631360CB
:102DE00003681A69436A1A70436A01334362438D68
:102DF0009BB2013B9BB24385E3E7012A0BD0102A2B
:102E000009D0042A39D0022A37D001680B6843F46C
:102E100000730B6004E001680B6823F480630B60AF
:102E200003681969436A1970416A4B1C4362438DF8
:102E30009BB2013B9BB2438503681B694B70436A9D
:102E400001334362438D9BB2013B9BB243850168D2
:102E50004B6823F440734B60202380F83D3090F89A
:102E60003E30402B0FD0002380F83E30082A11D08E
:102E7000202A0FD0122303630EE001680B6843F48D
:102E800080630B60CCE7002380F83E300363C36EA1
:102E9000984796E700230363836D984791E790F87E
:102EA0003E30402B10D00369B3F5804F1BD0036D2B
:102EB000002B38D1436CC3F3C813026803F0060338
:102EC00043F0F00313617047036D2BB9436C026844
:102ED00003F0FE0313617047436C026843F0010383
:102EE000DBB21361704790F83D30212B0FD0436C5B
:102EF000026843F00103DBB21361436B6BB1DB6B20
:102F00005BB10268536843F4006353607047436CDD
:102F1000026803F0FE031361EFE7836B33B1DB6BF1
:102F2000002BEED102E0036D012B00D07047436C03
:102F3000C3F3C813026803F0060343F0F1031361FF
:102F4000F4E7436C0268DBB21361436B3BB1DB6BAC
:102F50002BB10268536843F4006353607047836B7E
:102F6000002BFBD0DB6B002BF3D1F7E78AB090F896
:102F70003E30C16AD0F830C090F83D20222A09D0F6
:102F80000023099303685A6909929B690993099B75
:102F90000AB07047DBB2026D0AB9402B17D0036D3F
:102FA0001BB90369B3F5404F19D0438D9BB2002B79
:102FB00025D1029303685A6902929A690292029A91
:102FC0001A6842F400721A6000230365E0E7009279
:102FD00003685A6900929B690093009BD8E700231D
:102FE000019303685A6901929A690192019A1A68D9
:102FF00042F480721A60036D01330365C8E7438DA4
:103000009BB2012B25D0438D9BB2022B7CD0026852
:10301000136843F48063136003685A6812F4006F06
:103020000ED011F5803F07D0012905D0082903D023
:10303000102901D0202903D15A6842F480525A60E5
:103040000023089303685A6908929B690893089BB8
:10305000BAE711F5803F12D0082935D0202933D0A6
:10306000BCF1120F2ED0042940D002293ED01029E5
:103070003CD00268136823F4806313603BE002686D
:10308000136823F48063136003685A6812F4006FB6
:103090000CD01A6822F480621A600023039303683C
:1030A0005A6903929B690393039B8DE70022049264
:1030B0005A6904929A690492049A1A6842F4007256
:1030C0001A6081E70129D0D00268136823F4806375
:1030D00013600023069303685A6906929A69069260
:1030E000069A1A6842F400721A606DE70268136863
:1030F00043F4806313600023059303685A690592C3
:103100009B690593059B5FE704290ED002290CD02B
:1031100010290AD00268136823F4806313600268E0
:10312000136843F40063136004E00268136843F417
:103130008063136003685A6812F4006F0ED011F5B3
:10314000803F07D0012905D0082903D0102901D0DC
:10315000202903D15A6842F480525A600023079311
:1031600003685A6907929B690793079B2CE708B588
:1031700090F83D30DAB2438D9BB283B1416A036867
:1031800009781961436A01334362438D9BB2013B65
:103190009BB24385438D9BB20BB9292A00D008BD51
:1031A0000268536823F48063536021230363282358
:1031B00080F83D30C36D9847F1E7438D9BB25BB11A
:1031C000426A036812781A61436A01334362438D8D
:1031D0009BB2013B9BB24385704708B590F83D30E8
:1031E000DAB2438D9BB283B103681969436A1970DF
:1031F000436A01334362438D9BB2013B9BB24385DB
:10320000438D9BB20BB92A2A00D008BD02685368CF
:1032100023F48063536022230363282380F83D3026
:10322000036E9847F1E7438D9BB25BB103681A695F
:10323000436A1A70436A01334362438D9BB2013B78
:103240009BB24385704700B583B090F83D3003F0E2
:103250002803282B0BD000230193026851690191A8
:1032600092690192019A80F83C3003B000BD026877
:10327000536823F48063536011F0040F0CD04FF0B7
:10328000000C11F0800F0AD18289002380F83C30B5
:10329000836F61469847E8E74FF0010CF1E7028B36
:1032A000F3E7000010B5044690F83D30DBB2C26A87
:1032B000082A08D0202A06D0212B21D023686FF4B9
:1032C00080625A6110BD282BF6D11D4BE362226843
:1032D000536823F4E063536023686FF480625A619B
:1032E0002268136823F48063136000232363202281
:1032F00084F83D2084F83E30636E20469847E1E72D
:103300000F4BE36221232363202384F83D30002305
:1033100084F83E302268536823F4E06353602368E6
:103320006FF480625A612268136823F4806313602B
:103330002046FFF7EFFBE36D20469847C2E700BF4A
:103340000000FFFF00B583B000230193806B90F86D
:103350003D20D2B2314B1B68DB083149A1FB03137E
:103360001B0A03EB8303C3EBC3030193019B43B12C
:10337000019B013B019303681B6813F4007FF5D1A7
:1033800003E0036C43F020030364436B0BB10021A3
:10339000D963836B0BB10021D96301680B6823F4F7
:1033A00080630B6000234385436B0BB100211965DB
:1033B000836B0BB10021196501680B6823F00103D1
:1033C0000B6090F83D30602B0DD002F02802282AC7
:1033D00013D0202380F83D30002380F83E30036F67
:1033E000984703B000BD202380F83D30002380F8CB
:1033F0003E300364436F9847F3E70268136843F075
:10340000010313600268136843F4806313600023B0
:103410000363282380F83D30E1E700BF000000206F
:1034200089B5F81482B0002301930E4B1B68DB08AA
:103430000D4AA2FB03231B0A03EB83030193019BA9
:10344000013B0193019B33B103681B6813F4007FB8
:10345000F5D1002004E0036C43F020030364012055
:1034600002B070470000002089B5F81438B590F814
:103470003D30222B00D038BD0446C36A1D46438D23
:103480009BB2032B15D903681A69436A1A70436A01
:1034900001334362438D9BB2013B9BB24385438D15
:1034A0009BB2032BE7D10268536823F48063536017
:1034B000E1E7C26A022A01D0012B05D922685368CC
:1034C00023F480635360D6E7FFF7ACFF002833D1C5
:1034D0002268136823F4806313602268536823F41E
:1034E000E063536023681A69636A1A70636A013380
:1034F0006362638D9BB2013B9BB26385202384F89A
:103500003D3094F83E30402B09D0002384F83E3003
:10351000082D0BD0202D09D01223236308E084F856
:103520003E002063E36E20469847A4E70023236310
:10353000A36D204698479EE72268536823F4E06312
:10354000536023681A69636A1A70636A013363629D
:10355000638D9BB2013B9BB26385202384F83D3091
:10356000002384F83E30236F2046984783E7C36AE0
:10357000B3F52A0F04D0C36AB3F12A4F03D07047C2
:103580000123C36270470823C362F8E710B50446FD
:1035900090F83D30DBB290F83E20102A36D0D1B200
:1035A000402933D003F02802282A37D022685268F5
:1035B00012F4006F07D1602B05D0202384F83D3032
:1035C000002384F83E300023236323685A6812F4F2
:1035D000006F47D05A6822F400625A60636B93F818
:1035E0003520012A20D0484A1A65606BFEF7EAFFB1
:1035F000002848D02268136823F0010313602023B9
:1036000084F83D30606B036D98473CE0222BC9D1B4
:1036100021680A6822F400620A60C3E7002323637A
:10362000282384F83D30D0E7A36B374A1A65A06B96
:10363000FEF7C8FF38B323685A6912F0400F05D06F
:103640001A69636A1A70636A0133636222681368D5
:1036500023F001031360202384F83D30A06B036D39
:10366000984710E094F83D20602A28D05A6912F05B
:10367000400F05D01A69636A1A70636A0133636286
:10368000236F20469847236C13F0010F08D113F0E5
:10369000020F05D113F0040F02D113F0080F04D06C
:1036A0002268536823F4E063536094F83D30DBB242
:1036B000226C12F0040F01D0282B18D010BD20224C
:1036C00084F83D20002222645A6912F0400F05D090
:1036D0001A69636A1A70636A013363622268136845
:1036E00023F001031360636F20469847CBE7074B35
:1036F000E36200232363202284F83D2084F83E30D7
:10370000636E20469847D9E7453300080000FFFF65
:1037100030B583B0044690F83D50EDB2026853686E
:1037200023F4E06353600023019303685A69019214
:103730001A6842F001021A60019B0268136823F4C0
:103740008063136003685A6812F4006F38D0222D2A
:1037500021D02A2D1FD0426B1268526892B2428546
:10376000428D92B21AB1026C42F0040202645A68AD
:1037700022F400625A60606BFFF724F801281FD022
:10378000636B434A1A65606BFEF71CFFC0B1606B48
:10379000036D984714E0A26B1268526892B262857A
:1037A000628D92B21AB1226C42F0040222645A680D
:1037B00022F400625A60A06BFFF704F8012841D19F
:1037C000638D9BB233B323685A6912F0040F0AD099
:1037D0001A69636A1A70636A01336362638D9BB20C
:1037E000013B9BB2638523685A6912F0400F0AD0EF
:1037F0001A69636A1A70636A01336362638D9BB2EC
:10380000013B9BB26385638D9BB21BB1236C43F07C
:1038100004032364236C0BBB2A2D24D094F83D3081
:10382000282B28D0236B222B01D0222D19D1002345
:103830002363202284F83D2084F83E30236E204606
:1038400098470EE0A36B124A1A65A06BFEF7BAFE0A
:103850000028B5D0A06B036D9847B1E72046FFF76D
:1038600095FE03B030BD2363282384F83D30236EDA
:1038700020469847D2E7074BE362002323632022C8
:1038800084F83D2084F83E30636E20469847E8E790
:10389000453300080000FFFF002800F0898138B59B
:1038A00004460368AE4A93420CD002F5806293420C
:1038B00008D002F58062934204D040F2C911A948B1
:1038C000FDF7D3FC6368013BA74A934200F299805D
:1038D000A3681BB1B3F5804F40F09980E368B3F55E
:1038E000806F80F09A802369B3F5804F03D0B3F5E1
:1038F000404F40F098806369012B00F29A80A369E1
:1039000033F0FE0340F09B80E36913B1402B40F09D
:103910009C80236A13B1802B40F09D8094F83D3049
:10392000E3B984F83C30914B6365914BA365914BAF
:10393000E365914B2366914B6366914BA366914B74
:10394000E366914B2367914B6367914BA367E36FEA
:10395000002B00F08680E36F20469847242384F8EC
:103960003D302268136823F0010313602268136856
:1039700043F4004313602268136823F40043136088
:1039800000F03CFE6268834B9A426DD8824B9842AD
:103990008CBF00230123002B40F00C817F49A1FB49
:1039A00000318B0CD4F800C0DCF8042022F03F0278
:1039B00042EA9142CCF8042021680A6A22F03F02D0
:1039C000DFF8D0C16568654554D8013313430B62F5
:1039D0002168CA6922F44F4222F0FF02D4F804C0E1
:1039E0006C4B9C4551D8431E4FEA4C0CB3FBFCF387
:1039F000013340F6FC70034200F08380C3F30B03F5
:103A000080E04FF4E5715748FDF72FFC60E740F286
:103A1000CB115448FDF729FC60E74FF4E67151489B
:103A2000FDF723FC5FE740F2CD114E48FDF71DFC8A
:103A300061E74FF4E7714B48FDF717FC5FE740F291
:103A4000CF114848FDF711FC5EE74FF4E871454897
:103A5000FDF70BFC5DE740F2D1114248FDF705FC94
:103A60005CE74F4BE36776E74E4B98428CBF0023F1
:103A7000012390E74FF4967C0CFB03F3DFF828C199
:103A8000ACFB03C39B090133A0E7D4F808E0BEF107
:103A9000000F1AD1431E0CEB4C05B3FBF5F30133B9
:103AA000C3F30B03B3FA83F35B09002B7ED1BEF1A2
:103AB000000F19D1431E0CEB4C0CB3FBFCF301338C
:103AC000C3F30B0343F400431CE00CEB8C0303EB48
:103AD00083031D46431EB3FBF5F30133C3F30B030E
:103AE000B3FA83F35B09E0E7431E0CEB8C0C0CEBA1
:103AF0008C0CB3FBFCF30133C3F30B0343F44043DF
:103B000000E004231A43CA6121680B6823F0C00354
:103B1000E269206A024313430B6021688B6823F437
:103B2000034323F0FF032269E068024313438B60E1
:103B30002168CB6823F0FF036269A0690243134345
:103B4000CB602268136843F00103136000202064F7
:103B5000202384F83D30206384F83E0038BD00BF48
:103B6000005400403C9400087F1A0600252B0008F2
:103B7000272B0008292B00082B2B00082F2B0008CF
:103B8000312B0008332B0008352B0008372B000899
:103B90002D2B0008A08601007F841E0083DE1B43BE
:103BA000B1100008FF083D00D34D62100123A9E7C2
:103BB000012070470120D1E738B5044603685868F2
:103BC000D4F82CE094F83E105FFA81FC94F83D2084
:103BD000D2B2102917D0BCF1400F14D0216C0029AB
:103BE0007ED059694FF0000C11F0020F7CD010F418
:103BF000007F79D0226C0AB1D3F818C06146204604
:103C0000FFF721FB38BD99690D46596911F0010F85
:103C100006D1BEF52A0FF5D0BEF12A4F03D1F1E748
:103C200010F4007F2AD111F0080F02D010F4007FA9
:103C30002BD111F0020F02D010F4007F29D115F022
:103C4000040F32D05B6813F4006FDBD111F0800FEA
:103C500005D010F4806F02D011F0040F1DD011F0C8
:103C6000040FCFD010F4007FCCD0212A19D0BCF1A2
:103C7000400FC7D12046FEF7ACFFC3E72046FFF751
:103C800076FC2046FFF70BF9BCE72046FFF759F911
:103C9000B8E72046FFF76AF9B4E72046FEF7FBFFD6
:103CA000B0E72046FEF748FFACE75B6813F4006F0F
:103CB000A8D111F0400F05D010F4806F02D011F0A0
:103CC000040F09D011F0040F9CD010F4007F99D09C
:103CD0002046FFF74AF895E72046FFF7C7FB91E734
:103CE000D3F818C059697FE711F0100F02D010F413
:103CF000007F18D1212A1AD0292A18D011F0400F9C
:103D000005D010F4806F02D011F0040F28D011F00C
:103D1000040F3FF477AF10F4007F3FF473AF2046F9
:103D2000FFF781FA6EE72046FFF7F2FC6AE711F031
:103D3000800F05D010F4806F02D011F0040F0BD06B
:103D400011F0040F3FF45EAF10F4007F3FF45AAF60
:103D50002046FFF732FA55E72046FFF708FA51E709
:103D60002046FFF73AFA4DE7F8B5044603685D6967
:103D70005F6890F83E20D2B2C5F3002615F4807F2C
:103D800007D0C7F3002617F4807F02D06FF480714C
:103D9000596115F4007F08D017F4807F05D046F0F4
:103DA000020623686FF40071596115F4806F19D011
:103DB00017F4807F16D0638D99B294F83D30DBB252
:103DC000206B202A1BD023686FF48061596146F074
:103DD0000406102A01D0402A04D12268136843F453
:103DE0000073136015F4006F17D017F4807F14D0A0
:103DF00046F0080623686FF400625A610EE000295D
:103E0000E1D1212B05D0292B03D0282BDBD1212870
:103E1000D9D12046FFF746FAE4E72EB1236C3343AD
:103E200023642046FFF7B2FBF8BD0000002800F035
:103E3000608270B582B0044603680F2B39D82368BE
:103E400013F0010F4DD063682BB1B3F5803F02D062
:103E5000B3F5A02F32D1804B9B6803F00C03042BE9
:103E600036D07D4B9B6803F00C03082B2BD0636886
:103E7000B3F5803F5FD0B3F5A02F62D0764B1A68C0
:103E800022F480321A601A6822F480221A60636871
:103E9000002B60D0FDF7F2FD05466F4B1B6813F455
:103EA000003F1ED1FDF7EAFD401B6428F5D9032031
:103EB00026E2E6216948FDF7D8F9C0E7EB2167481B
:103EC000FDF7D3F9C7E7644B5B6813F4800FCED0DE
:103ED000614B1B6813F4003F03D06368002B00F0B4
:103EE0000A82236813F0020F66D0E368012B41D8E1
:103EF00023691F2B44D8584B9B6813F00C0F4AD0F2
:103F0000554B9B6803F00C03082B3FD0E368002B54
:103F100077D0534B01221A60FDF7B0FD05464E4B9A
:103F20001B6813F0020F63D1FDF7A8FD401B0228A8
:103F3000F5D90320E4E1484A136843F48033136061
:103F4000A5E7454B1A6842F480221A601A6842F4C9
:103F500080321A609BE7FDF791FD05463E4B1B68DA
:103F600013F4003FBDD0FDF789FD401B6428F5D94F
:103F70000320C5E140F21D113848FDF776F9B7E797
:103F80004FF48F713548FDF770F9B4E7324B5B6839
:103F900013F4800FBAD1304B1B6813F0020F03D01B
:103FA000E368012B40F0A9812B4A136823F0F80342
:103FB000216943EAC1031360236813F0080F51D04D
:103FC0006369012B2FD863699BB3254B0122C3F88A
:103FD000802EFDF753FD05461F4B5B6F13F0020F5C
:103FE00040D1FDF74BFD401B0228F5D9032087E1A6
:103FF000194A136823F0F803216943EAC1031360E7
:10400000DAE7174B00221A60FDF738FD0546124B20
:104010001B6813F0020FCFD0FDF730FD401B0228C4
:10402000F5D903206CE14FF4AF710C48FDF71DF991
:10403000C9E70B4B0022C3F8802EFDF71FFD054694
:10404000054B5B6F13F0020F0CD0FDF717FD401B03
:104050000228F5D9032053E1003802407494000887
:1040600000004742236813F0040F7ED0A368012BA1
:1040700001D9052B39D1A34B1B6C13F0805F3AD1CA
:10408000002301939F4B1A6C42F080521A641B6C00
:1040900003F080530193019B01231E469A4B1B683A
:1040A00013F4807F2AD0A368012B3BD0052B3FD08F
:1040B000944B1A6F22F001021A671A6F22F0040261
:1040C0001A67A368002B3DD0FDF7D8FC05468D4B41
:1040D0001B6F13F0020F46D1FDF7D0FC401B41F2DD
:1040E00088339842F3D903200AE14FF4C571874819
:1040F000FDF7BBF8BFE700231E46CFE7824A1368EF
:1041000043F480731360FDF7B9FC05467E4B1B68D2
:1041100013F4807FC7D1FDF7B1FC401B0228F5D90D
:104120000320EDE0774A136F43F001031367C8E7FC
:10413000744B1A6F42F004021A671A6F42F00102C0
:104140001A67BEE7FDF79AFC05466E4B1B6F13F02E
:10415000020F08D0FDF792FC401B41F288339842D1
:10416000F3D90320CCE0002E3CD1A369022B3FD829
:10417000A369002B00F0C380624A926802F00C022F
:10418000082A00F09180022B7AD1E36913B1B3F5CC
:10419000800F33D1236A023B3D2B35D8636A323B13
:1041A000B3F5BF7F36D8A36A022B05D0042B03D00A
:1041B000062B01D0082B33D1E36A023B0D2B35D8F7
:1041C000534B00221A66FDF759FC05464D4B1B6800
:1041D00013F0007F30D0FDF751FC401B0228F5D9C9
:1041E00003208DE0474A136C23F080531364BCE72F
:1041F00040F2CD114548FDF738F8B9E74FF4EB71BF
:104200004248FDF732F8C5E740F2D7113F48FDF7C5
:104210002CF8C3E74FF4EC713C48FDF726F8C2E7F1
:1042200040F2D9113948FDF720F8C5E74FF4ED7198
:104230003648FDF71AF8C3E7E369226A1343626A56
:1042400043EA8213A26A5208013A43EA0243E26A4D
:1042500043EA02632B4A53602D4B01221A66FDF795
:104260000DFC0446274B1B6813F0007F06D1FDF7B9
:1042700005FC001B0228F5D9032041E000203FE0A7
:10428000234B00221A66FDF7F9FB04461D4B1B6801
:1042900013F0007F06D0FDF7F1FB001B0228F5D9D3
:1042A00003202DE000202BE0012B33D0154B5B6861
:1042B00003F48001E26991422ED103F03F02216AAA
:1042C0008A422BD1616A47F6C0721A40B2EB811F55
:1042D00026D103F44031A26A5208013AB1EB024FF1
:1042E00020D103F07063E26AB3EB026F1CD10020AF
:1042F00006E001207047012002E0012000E018469E
:1043000002B070BD00380240007000407494000894
:10431000000047420120F3E70120F1E70120EFE729
:104320000120EDE70120EBE70120E9E708B5264B86
:104330009B6803F00C03042B41D0082B41D1224B86
:104340005A6802F03F025B6813F4800F12D01E4BD4
:104350005968C1F388111D480023A1FB0001FBF738
:1043600017FF194B5B68C3F3014301335B00B0FBDC
:10437000F3F008BD144B5868C0F388104FEA401C96
:10438000BCEB000C6EEB0E0E4FEA8E1343EA9C63FF
:104390004FEA8C11B1EB0C0163EB0E03DB0043EA37
:1043A0005173C90011EB000C43F100039902002383
:1043B0004FEA8C2041EA9C51FBF7EAFED1E7034823
:1043C000D7E70348D5E700BF00380240001BB7001D
:1043D0000024F400002800F0F78070B50D46044674
:1043E0000368013B0E2B6BD8072D6FD87A4B1B68E7
:1043F00003F00703AB4208D2EBB2774A137013689D
:1044000003F00703AB4240F0E180236813F0020F92
:1044100029D013F0040F04D0704A936843F4E0539A
:104420009360236813F0080F04D06C4A936843F438
:1044300060439360A3687BB1802B0DD0902B0BD091
:10444000A02B09D0B02B07D0C02B05D0D02B03D088
:10445000E02B01D0F02B3FD1604A936823F0F003AA
:10446000A1680B439360236813F0010F4ED063687B
:10447000032B37D86368012B3AD09A1E012A3ED904
:10448000564A126812F0020F00F0A28053498A685F
:1044900022F0030213438B60FDF7F0FA06464F4B00
:1044A0009B6803F00C036268B3EB820F2ED0FDF71C
:1044B000E5FA801B41F288339842F0D9032076E078
:1044C00040F25A214648FCF7D0FE8DE740F25B21CE
:1044D0004348FCF7CAFE89E740F27E214048FCF7DA
:1044E000C4FEB9E740F285213D48FCF7BEFEC1E7B6
:1044F0003A4A126812F4003FC8D1012057E0374A07
:10450000126812F0007FC1D1012050E0324B1B68CD
:1045100003F00703AB4207D9EAB22F4B1A701B68AE
:1045200003F00703AB4255D1236813F0040F14D0F6
:10453000E3685BB1B3F5805F08D0B3F5A05F05D049
:10454000B3F5C05F02D0B3F5E05F31D1234A936881
:1045500023F4E053E1680B439360236813F0080FE2
:1045600015D023695BB1B3F5805F08D0B3F5A05FC8
:1045700005D0B3F5C05F02D0B3F5E05F1ED1174A96
:10458000936823F46043216943EAC1039360FFF712
:10459000CDFE124B9B68C3F30313124AD35CD84081
:1045A000114B1860114B1868FCF738FF002070BDE4
:1045B00040F2C3210A48FCF758FEC7E740F2CA217F
:1045C0000748FCF752FEDAE7012070470120EEE7CA
:1045D0000120ECE70120EAE7003C024000380240FD
:1045E00074940008109300080000002008000020C8
:1045F000014B1868704700BF0000002008B5FFF7A6
:10460000F7FF044B9B68C3F38223034AD35CD84073
:1046100008BD00BF003802400893000808B5FFF746
:10462000E7FF044B9B68C3F34233034AD35CD84093
:1046300008BD00BF00380240089300080F23036044
:104640000B4B9A6802F0030242609A6802F0F00293
:1046500082609A6802F4E052C2609B68DB0803F44F
:10466000E0530361034B1B6803F007030B607047C3
:1046700000380240003C0240704770477047704766
:104680007047704770477047002800F01D8110B5D3
:10469000044603688D4A93420CD0A2F578429342B7
:1046A00008D002F58062934204D04FF4A17188488B
:1046B000FCF7DBFD636813B1B3F5827F3ED1A368DD
:1046C0002BB1B3F5806F02D0B3F5004F3CD1E36856
:1046D000B3F5006F01D0002B3CD1A369B3F5007F87
:1046E00003D013B1B3F5802F3AD1E3696BB1082B36
:1046F0000BD0102B09D0182B07D0202B05D0282B3E
:1047000003D0302B01D0382B30D1236A0BB1802B52
:1047100032D1636A0BB1102B34D1636A002B59D1AB
:1047200023690BB1022B33D16369012B36D863683F
:10473000B3F5827F38D00023E3615EE040F243119D
:104740006348FCF792FDBAE74FF4A2716048FCF7AA
:104750008CFDBCE740F245115D48FCF786FDBCE7E7
:104760004FF4A3715A48FCF780FDBEE740F24711B1
:104770005748FCF77AFDC8E74FF4A4715448FCF79A
:1047800074FDC6E740F249115148FCF76EFDC4E7DD
:104790004FF4A6714E48FCF768FDC5E740F24D1195
:1047A0004B48FCF762FDC2E7E36933B3082B24D022
:1047B000102B22D0182B20D0202B1ED0282B1CD021
:1047C000302B1AD0382B18D040F251114048FCF74A
:1047D0004CFD12E0E3696BB1082B0BD0102B09D014
:1047E000182B07D0202B05D0282B03D0302B01D03D
:1047F000382B60D10023236163610023A36294F806
:104800005130BBB984F85030324BA365324BE3656D
:10481000324B2366324B6366324BA366324BE36600
:10482000324B2367324B6367A36F002B49D0A36FD2
:1048300020469847022384F851302268136823F0F9
:1048400040031360636803F48273A26802F40442B5
:104850001343E26802F400621343226902F0020289
:104860001343626902F001021343A26902F4007269
:104870001343E26902F038021343226A02F0800215
:104880001343A26A02F40052216813430B60638B46
:1048900003F00403626A02F01002216813434B60C4
:1048A0002268D36923F40063D3610020606501238B
:1048B00084F8513010BD40F25B110548FCF7D5FC7F
:1048C00098E70C4BA367B2E7012070470030014026
:1048D000AC940008794600087B4600087D46000835
:1048E0007F46000881460008834600088546000888
:1048F00087460008B5120008704770477047704738
:104900007047704770477047704770472DE9F04116
:1049100004460D46036A026A22F0010202624768F9
:10492000826922F0730209680A43904623F0020369
:10493000AE681E43204B984203D003F58063984233
:1049400009D1EB680BB1082B24D126F00806EB68DF
:10495000334323F00406184B9C4203D003F58063D5
:104960009C420FD1AB69B3F5007F00D0C3B96B692E
:10497000B3F5807F00D0CBB927F440776B693B4318
:10498000AF691F436760C4F818806B686363266271
:10499000BDE8F08141F6CD210848FCF766FCD4E77C
:1049A00041F6DA210548FCF760FCE0E741F6DB213F
:1049B0000248FCF75AFCDFE700000140E4940008DD
:1049C0002DE9F04104460E46056A036A23F480731C
:1049D00003624768C36923F073030A681343984668
:1049E00025F400758B6845EA0325224B984203D0D5
:1049F00003F5806398420AD1F3680BB1082B27D1E5
:104A000025F40065F36845EA032525F48065194B14
:104A10009C4203D003F580639C4211D1B369B3F586
:104A2000007F00D0D3B97369B3F5807F00D0DBB9C4
:104A300027F44057736947EA0317B36947EA031736
:104A40006760C4F81C807368E3632562BDE8F08189
:104A500041F664310848FCF708FCD1E741F67131B2
:104A60000548FCF702FCDEE741F672310248FCF72C
:104A7000FCFBDDE700000140E49400082DE9F04173
:104A800004460D46066A036A23F480530362D0F895
:104A90000480C76927F4E6470B6847EA032726F432
:104AA00000568B6846EA03360F4B984203D003F555
:104AB0008063984209D16B69B3F5807F00D063B9F8
:104AC00028F480486B6948EA8318C4F80480E761D9
:104AD0006B6823642662BDE8F08141F6B13103487A
:104AE000FCF7C3FBECE700BF00000140E4940008C2
:104AF00010B5044603683D4A934237D0B3F1804F66
:104B000034D0A2F57C42934230D002F580629342C9
:104B10002CD002F58062934228D002F58062934245
:104B200024D002F58062934220D002F57042934275
:104B30001CD002F57052934218D002F58062934265
:104B400014D002F58062934210D0A2F598329342BD
:104B50000CD002F58062934208D002F58062934245
:104B600004D04FF4E8712248FCF77FFB94F83D3005
:104B7000012B37D1022384F83D302268D36843F0FB
:104B80000103D3602368194A934220D0B3F1804FC8
:104B90001DD0A2F57C42934219D002F58062934267
:104BA00015D002F58062934211D002F5784293420B
:104BB0000DD002F57052934209D0A2F5943293427F
:104BC00005D01A6842F001021A6000200BE09A68D2
:104BD00002F00702062A07D01A6842F001021A60A2
:104BE000002000E0012010BD0020FCE70000014093
:104BF000E494000870B504460368DE681D6915F08A
:104C0000020F12D016F0020F0FD06FF002021A61DD
:104C10000123037703689B6913F0030F00F083807F
:104C2000D0F8903098470023237715F0040F13D065
:104C300016F0040F10D023686FF004021A610223EB
:104C4000237723689B6913F4407F74D0D4F89030A5
:104C5000204698470023237715F0080F13D016F04D
:104C6000080F10D023686FF008021A61042323771D
:104C70002368DB6913F0030F66D0D4F89030204628
:104C800098470023237715F0100F13D016F0100F5C
:104C900010D023686FF010021A610823237723686D
:104CA000DB6913F4407F58D0D4F890302046984701
:104CB0000023237715F0010F0AD016F0010F07D05B
:104CC00023686FF001021A61D4F8803020469847BB
:104CD00015F0800F0AD016F0800F07D023686FF010
:104CE00080021A61D4F8B0302046984715F0400F82
:104CF0000AD016F0400F07D023686FF040021A6107
:104D0000D4F888302046984715F0200F0AD016F0C6
:104D1000200F07D023686FF020021A61D4F8A83062
:104D20002046984770BDD0F898309847D4F89C300A
:104D30002046984777E7D4F8983020469847D4F82B
:104D40009C302046984785E7D4F89830204698470D
:104D5000D4F89C302046984793E7D4F89830204602
:104D60009847D4F89C3020469847A1E703469446DC
:104D7000002A00F0158190F83D20D0B2012A1CD005
:104D800093F83D2002F0FF00002A40F00B81072934
:104D900000F0F78000F2CF80032900F0E98040F2B4
:104DA000BD80052900F0E780062900F0E78004298E
:104DB00040F0BF80C3F858C070470D2900F08680CE
:104DC0002FD806296ED00CD90A2977D020D80829E7
:104DD0006CD009296ED0072919D1C3F864C000200E
:104DE0007047032956D009D801294BD002294DD04C
:104DF00019B9C3F848C008467047704704294DD018
:104E0000052903D1C3F85CC0002070477047704784
:104E10000B2957D00C2903D1C3F878C00020704764
:104E20007047142966D00CD918296FD021D81629BB
:104E300064D0172966D015291AD1C3F89CC0002068
:104E4000704711294ED00AD80F2943D0102945D0D8
:104E50000E2903D1C3F880C0002070477047122983
:104E600044D0132903D1C3F894C000207047704781
:104E7000704719294ED01A2903D1C3F8B0C00020B9
:104E800070477047C3F84CC000207047C3F850C04B
:104E900000207047C3F854C000207047C3F858C0C2
:104EA00000207047C3F860C000207047C3F868C096
:104EB00000207047C3F86CC000207047C3F870C072
:104EC00000207047C3F874C000207047C3F87CC04E
:104ED00000207047C3F884C000207047C3F888C022
:104EE00000207047C3F88CC000207047C3F890C002
:104EF00000207047C3F898C000207047C3F8A0C0D6
:104F000000207047C3F8A4C000207047C3F8A8C0B1
:104F100000207047C3F8ACC000207047012921D0A1
:104F2000022922D019B9C3F848C0084670470120A9
:104F30007047012070470B292CD00AD8092923D0AB
:104F40000A2924D0082902D1C3F868C0704701207B
:104F500070470C2921D00D2902D1C3F87CC07047BD
:104F600001207047C3F84CC07047C3F850C0704769
:104F7000C3F854C07047C3F85CC07047C3F860C042
:104F80007047C3F864C07047C3F86CC07047C3F87B
:104F900070C07047C3F874C07047C3F878C07047DA
:104FA00001207047012070470368324A904212D0B6
:104FB000B0F1804F0FD0A2F57C4290420BD002F5A9
:104FC0008062904207D002F58062904203D002F5E1
:104FD0007842904203D123F070034A681343254A74
:104FE00090422AD0B0F1804F27D0A2F57C42904267
:104FF00023D002F5806290421FD002F58062904279
:105000001BD002F57842904217D002F570529042C0
:1050100013D002F5806290420FD002F58062904278
:105020000BD0A2F59832904207D002F580629042F0
:1050300003D002F58062904203D123F44073CA6822
:10504000134323F080034A6913438A68C2620A68E3
:105050008262084A904203D002F58062904201D1F8
:105060000A690263026842F004020260012242619E
:1050700003607047000001402DE9F04104460E46F0
:10508000056A036A23F010030362D0F8048087697D
:1050900027F4E6470B6847EA032725F020058B68CD
:1050A00045EA0315224B984203D003F580639842EA
:1050B0000AD1F3680BB1082B27D125F08005F368DE
:1050C00045EA031525F04005194B9C4203D003F532
:1050D00080639C4211D1B369B3F5007F00D0D3B98E
:1050E0007369B3F5807F00D0DBB928F44068736939
:1050F00048EA8308B36948EA8308C4F80480A761D2
:105100007368A3632562BDE8F08141F6193109484F
:10511000FCF7ABF8D1E741F626310648FCF7A5F8D5
:10512000DEE741F627310348FCF79FF8DDE700BFD3
:1051300000000140E494000870B504460D46164690
:105140003AB1042A05D0082A03D00C2A01D03C2AFF
:1051500057D12B68602B01D0702B58D1AB680BB1A5
:10516000022B5AD12B690BB1042B5CD194F83C3043
:10517000012B00F01381012384F83C30082E00F04D
:10518000DC8058D8002E00F08C80042E51D123688A
:10519000834A93421FD0B3F1804F1CD0A2F57C42CA
:1051A000934218D002F58062934214D002F58062D7
:1051B000934210D002F5784293420CD002F570521F
:1051C000934208D0A2F59432934204D04FF4855113
:1051D0007448FCF74AF829462068FFF74DFF22681B
:1051E000936943F4006393612268936923F48063B5
:1051F000936122689369296943EA0123936100203E
:1052000097E041F282016748FCF72FF8A1E741F2ED
:1052100083016448FCF729F8A0E741F28401614862
:10522000FCF723F89EE741F285015E48FCF71DF884
:105230009CE718467DE00C2E31D12368584A9342F2
:1052400017D0B3F1804F14D0A2F57C42934210D016
:1052500002F5806293420CD002F58062934208D03E
:1052600002F57842934204D041F2C2014D48FBF767
:10527000FCFF29462068FFF701FC2268D36943F44C
:105280000063D3612268D36923F48063D361226809
:10529000D369296943EA0123D361002049E0012051
:1052A00047E023683E4A93422FD0B3F1804F2CD081
:1052B000A2F57C42934228D002F58062934224D02A
:1052C00002F58062934220D002F5784293421CD0CE
:1052D00002F57052934218D002F58062934214D0C6
:1052E00002F58062934210D0A2F5983293420CD01E
:1052F00002F58062934208D002F58062934204D0A6
:1053000041F28F012748FBF7B0FF29462068FFF7DD
:10531000FDFA2268936943F0080393612268936958
:1053200023F0040393612268936929690B43936115
:105330000020002384F83C3070BD2368184A934253
:1053400017D0B3F1804F14D0A2F57C42934210D015
:1053500002F5806293420CD002F58062934208D03D
:1053600002F57842934204D041F2B1010D48FBF7B7
:105370007CFF29462068FFF723FB2268D36943F0AE
:105380000803D3612268D36923F00403D361226840
:10539000D36929690B43D3610020CAE70220CBE718
:1053A00000000140E494000870B504460D4616461E
:1053B000274B98422FD0B0F1804F2CD0A3F57C43DF
:1053C000984228D003F58063984224D003F5806387
:1053D000984220D003F5784398421CD003F57053CF
:1053E000984218D003F58063984214D003F5806387
:1053F000984210D0A3F5983398420CD003F58063FF
:10540000984208D003F58063984204D041F69C513D
:105410001048FBF72AFF3DB1042D05D0082D03D01D
:105420000C2D01D03C2D0DD105F01F050122AA4005
:10543000236A23EA02032362236A3246AA40134303
:10544000236270BD41F69D510248FBF70EFFEBE76A
:1054500000000140E494000838B505460C46036896
:10546000614A934212D0B3F1804F0FD0A2F57C4233
:1054700093420BD002F58062934207D002F580621E
:10548000934203D002F57842934206D1F4B1042C42
:1054900063D0082C61D00C2C5FD0544A934258D072
:1054A000534A934263D0534A934263D0524A934241
:1054B00063D0524A934265D0514A934265D040F23C
:1054C000B3515048FBF7D1FE002C46D195F83E3041
:1054D000013B18BF0123002B40F08180002C63D1D9
:1054E000022385F83E30012221462868FFF75CFF41
:1054F0002B683D4A934203D002F58062934203D168
:105500005A6C42F400425A642B68374A93425BD08B
:10551000B3F1804F58D0A2F57C42934254D002F5AB
:105520008062934250D002F5806293424CD002F5E3
:105530007842934248D002F57052934244D0A2F58B
:105540009432934240D01A6842F001021A6000205F
:1055500044E0002CBAD0042CA2D1042C18D0082C82
:105560001CD095F84130013B18BF0123B3E7002C54
:10557000ACD098E7002CA9D098E7002CA6D0042C3A
:1055800097D1EAE7002CA1D096E7002C9ED096E7B1
:1055900095F83F30013B18BF01239CE795F8403058
:1055A000013B18BF012396E7042C05D0082C07D037
:1055B000022385F8413096E7022385F83F3092E7D1
:1055C000022385F840308EE79A6802F00702062A27
:1055D00007D01A6842F001021A60002038BD01208D
:1055E000FCE70020FAE700BF000001400040014056
:1055F000004401400048014000180040001C0040E9
:1056000000200040E4940008134BC0F88030134B96
:10561000C0F88430124BC0F88830124BC0F88C3080
:10562000114BC0F89030114BC0F89430104BC0F8BB
:105630009830104BC0F89C300F4BC0F8A0300F4B87
:10564000C0F8A4300E4BC0F8A8300E4BC0F8AC30F8
:105650000D4BC0F8B030704771110008FB480008CE
:105660000749000809490008FF48000801490008E7
:10567000FD48000803490008054900080B490008D7
:105680009D5A00089F5A0008A15A0008002800F0FF
:10569000B18010B504460368574A934237D0B3F13E
:1056A000804F34D0A2F57C42934230D002F5806224
:1056B00093422CD002F58062934228D002F580629A
:1056C000934224D002F58062934220D002F57042CA
:1056D00093421CD002F57052934218D002F58062BA
:1056E000934214D002F58062934210D0A2F5983212
:1056F00093420CD002F58062934208D002F580629A
:10570000934204D040F213113C48FBF7AEFDA3686E
:105710003BB1102B05D0202B03D0402B01D0602BA8
:1057200017D123692BB1B3F5807F02D0B3F5007F89
:1057300015D12368B3F1804F17D0314A934214D06A
:10574000E368013B4FF6FE7293428CBF00230123B6
:105750000FE04FF48A712948FBF787FDE1E740F23B
:1057600015112648FBF781FDE3E7E368003B18BF0E
:1057700001232BB3A3690BB1802B27D194F83D30C3
:1057800053B3022384F83D30214651F8040BFFF750
:105790000BFC012384F8463084F83E3084F83F3017
:1057A00084F8403084F8413084F8423084F8433043
:1057B00084F8443084F8453084F83D30002010BD32
:1057C0004FF48B710D48FBF750FDD3E740F21711F2
:1057D0000A48FBF74AFDD1E784F83C302046FFF742
:1057E00013FFA36C1BB1A36C20469847C9E7054B78
:1057F000A364F8E70120704700000140E49400082A
:10580000000C0040F9480008002800F0B18010B5F5
:1058100004460368574A934237D0B3F1804F34D0DF
:10582000A2F57C42934230D002F5806293422CD0A4
:1058300002F58062934228D002F58062934224D020
:1058400002F58062934220D002F5704293421CD050
:1058500002F57052934218D002F58062934214D040
:1058600002F58062934210D0A2F5983293420CD098
:1058700002F58062934208D002F58062934204D020
:1058800040F22C513C48FBF7F0FCA3683BB1102BD5
:1058900005D0202B03D0402B01D0602B17D12369DA
:1058A0002BB1B3F5807F02D0B3F5007F15D123680B
:1058B000B3F1804F17D0314A934214D0E368013BD3
:1058C0004FF6FE7293428CBF002301230FE040F29B
:1058D0002D512948FBF7C9FCE1E740F22E5126483B
:1058E000FBF7C3FCE3E7E368003B18BF01232BB3DE
:1058F000A3690BB1802B27D194F83D3053B3022319
:1059000084F83D30214651F8040BFFF74DFB01238D
:1059100084F8463084F83E3084F83F3084F84030D4
:1059200084F8413084F8423084F8433084F84430BD
:1059300084F8453084F83D30002010BD40F22F51EE
:105940000D48FBF792FCD3E74FF4A6610A48FBF73A
:105950008CFCD1E784F83C302046FFF755FE236EDF
:105960001BB1236E20469847C9E7054B2366F8E72D
:105970000120704700000140E4940008000C004042
:10598000B116000838B504460D460368414A9342F3
:105990001FD0B3F1804F1CD0A2F57C42934218D0A7
:1059A00002F58062934214D002F58062934210D0D7
:1059B00002F5806293420CD002F58062934208D0D7
:1059C00002F57042934204D040F2A9713248FBF7CD
:1059D0004CFC2B686BB1102B0BD0202B09D0302B3B
:1059E00007D0402B05D0502B03D0602B01D0702B5B
:1059F00041D16B68802B01D0002B42D194F83C3010
:105A0000012B44D0012384F83C30022384F83D303C
:105A100023685968986821F070012A680A435A601F
:105A200023681C4A93421AD0B3F1804F17D0A2F5D5
:105A30007C42934213D002F5806293420FD002F56C
:105A4000806293420BD002F57842934207D002F570
:105A50007052934203D0A2F59432934204D120F0C5
:105A600080006A6802439A60012384F83D30002078
:105A700084F83C0038BD40F2AA710748FBF7F5FBFB
:105A8000B7E740F2AB710448FBF7EFFBB6E7022043
:105A9000F0E700BF000001401C9500087047704708
:105AA000704770477047704770477047704770473E
:105AB00070477047026802F10C0353E8003F23F47B
:105AC00090730C3242E800310029F3D1026802F1F0
:105AD000140353E8003F23F00103143242E800317D
